{
  "_format": "hh-sol-artifact-1",
  "contractName": "CrowdFunding",
  "sourceName": "contracts/CrowdFunding.sol",
  "abi": [
    {
      "inputs": [
        {
          "internalType": "uint256",
          "name": "",
          "type": "uint256"
        }
      ],
      "name": "campaigns",
      "outputs": [
        {
          "internalType": "address",
          "name": "owner",
          "type": "address"
        },
        {
          "internalType": "string",
          "name": "title",
          "type": "string"
        },
        {
          "internalType": "string",
          "name": "description",
          "type": "string"
        },
        {
          "internalType": "uint256",
          "name": "target",
          "type": "uint256"
        },
        {
          "internalType": "uint256",
          "name": "deadline",
          "type": "uint256"
        },
        {
          "internalType": "uint256",
          "name": "amountCollected",
          "type": "uint256"
        }
      ],
      "stateMutability": "view",
      "type": "function"
    },
    {
      "inputs": [
        {
          "internalType": "address",
          "name": "_owner",
          "type": "address"
        },
        {
          "internalType": "string",
          "name": "_title",
          "type": "string"
        },
        {
          "internalType": "string",
          "name": "_description",
          "type": "string"
        },
        {
          "internalType": "uint256",
          "name": "_target",
          "type": "uint256"
        },
        {
          "internalType": "uint256",
          "name": "_deadline",
          "type": "uint256"
        }
      ],
      "name": "createCampaign",
      "outputs": [
        {
          "internalType": "uint256",
          "name": "",
          "type": "uint256"
        }
      ],
      "stateMutability": "nonpayable",
      "type": "function"
    },
    {
      "inputs": [
        {
          "internalType": "uint256",
          "name": "_id",
          "type": "uint256"
        }
      ],
      "name": "donateToCampaign",
      "outputs": [],
      "stateMutability": "payable",
      "type": "function"
    },
    {
      "inputs": [],
      "name": "getAllCampaigns",
      "outputs": [
        {
          "components": [
            {
              "internalType": "address",
              "name": "owner",
              "type": "address"
            },
            {
              "internalType": "string",
              "name": "title",
              "type": "string"
            },
            {
              "internalType": "string",
              "name": "description",
              "type": "string"
            },
            {
              "internalType": "uint256",
              "name": "target",
              "type": "uint256"
            },
            {
              "internalType": "uint256",
              "name": "deadline",
              "type": "uint256"
            },
            {
              "internalType": "uint256",
              "name": "amountCollected",
              "type": "uint256"
            },
            {
              "internalType": "address[]",
              "name": "donars",
              "type": "address[]"
            },
            {
              "internalType": "uint256[]",
              "name": "donations",
              "type": "uint256[]"
            }
          ],
          "internalType": "struct CrowdFunding.Campaign[]",
          "name": "",
          "type": "tuple[]"
        }
      ],
      "stateMutability": "view",
      "type": "function"
    },
    {
      "inputs": [
        {
          "internalType": "uint256",
          "name": "_id",
          "type": "uint256"
        }
      ],
      "name": "getDonars",
      "outputs": [
        {
          "internalType": "address[]",
          "name": "",
          "type": "address[]"
        },
        {
          "internalType": "uint256[]",
          "name": "",
          "type": "uint256[]"
        }
      ],
      "stateMutability": "view",
      "type": "function"
    }
  ],
  "bytecode": "0x6080604052600060015534801561001557600080fd5b50611754806100256000396000f3fe60806040526004361061004a5760003560e01c8063075843c31461004f578063141961bc1461008c57806317f3f9c7146100ce57806342a4fda81461010c57806386cdf60414610128575b600080fd5b34801561005b57600080fd5b5061007660048036038101906100719190610bcf565b610153565b6040516100839190610c91565b60405180910390f35b34801561009857600080fd5b506100b360048036038101906100ae9190610cac565b610263565b6040516100c596959493929190610d67565b60405180910390f35b3480156100da57600080fd5b506100f560048036038101906100f09190610cac565b6103cf565b604051610103929190610f52565b60405180910390f35b61012660048036038101906101219190610cac565b6104df565b005b34801561013457600080fd5b5061013d610642565b60405161014a9190611238565b60405180910390f35b600080600080600154815260200190815260200160002090504283116101ae576040517f08c379a00000000000000000000000000000000000000000000000000000000081526004016101a5906112cc565b60405180910390fd5b868160000160006101000a81548173ffffffffffffffffffffffffffffffffffffffff021916908373ffffffffffffffffffffffffffffffffffffffff1602179055508581600101908161020291906114f8565b508481600201908161021491906114f8565b508381600301819055508281600401819055506000816005018190555060016000815480929190610244906115f9565b9190505550600180546102579190611641565b91505095945050505050565b60006020528060005260406000206000915090508060000160009054906101000a900473ffffffffffffffffffffffffffffffffffffffff16908060010180546102ac9061131b565b80601f01602080910402602001604051908101604052809291908181526020018280546102d89061131b565b80156103255780601f106102fa57610100808354040283529160200191610325565b820191906000526020600020905b81548152906001019060200180831161030857829003601f168201915b50505050509080600201805461033a9061131b565b80601f01602080910402602001604051908101604052809291908181526020018280546103669061131b565b80156103b35780601f10610388576101008083540402835291602001916103b3565b820191906000526020600020905b81548152906001019060200180831161039657829003601f168201915b5050505050908060030154908060040154908060050154905086565b6060806000808481526020019081526020016000206006016000808581526020019081526020016000206007018180548060200260200160405190810160405280929190818152602001828054801561047d57602002820191906000526020600020905b8160009054906101000a900473ffffffffffffffffffffffffffffffffffffffff1673ffffffffffffffffffffffffffffffffffffffff1681526020019060010190808311610433575b50505050509150808054806020026020016040519081016040528092919081815260200182805480156104cf57602002820191906000526020600020905b8154815260200190600101908083116104bb575b5050505050905091509150915091565b60003490506000806000848152602001908152602001600020905080600601339080600181540180825580915050600190039060005260206000200160009091909190916101000a81548173ffffffffffffffffffffffffffffffffffffffff021916908373ffffffffffffffffffffffffffffffffffffffff1602179055508060070182908060018154018082558091505060019003906000526020600020016000909190919091505560008160000160009054906101000a900473ffffffffffffffffffffffffffffffffffffffff1673ffffffffffffffffffffffffffffffffffffffff16836040516105d4906116a6565b60006040518083038185875af1925050503d8060008114610611576040519150601f19603f3d011682016040523d82523d6000602084013e610616565b606091505b50509050801561063c578282600501600082825461063491906116bb565b925050819055505b50505050565b6060600060015467ffffffffffffffff81111561066257610661610a6e565b5b60405190808252806020026020018201604052801561069b57816020015b610688610986565b8152602001906001900390816106805790505b50905060005b60015481101561097e576000806000838152602001908152602001600020905080604051806101000160405290816000820160009054906101000a900473ffffffffffffffffffffffffffffffffffffffff1673ffffffffffffffffffffffffffffffffffffffff1673ffffffffffffffffffffffffffffffffffffffff1681526020016001820180546107349061131b565b80601f01602080910402602001604051908101604052809291908181526020018280546107609061131b565b80156107ad5780601f10610782576101008083540402835291602001916107ad565b820191906000526020600020905b81548152906001019060200180831161079057829003601f168201915b505050505081526020016002820180546107c69061131b565b80601f01602080910402602001604051908101604052809291908181526020018280546107f29061131b565b801561083f5780601f106108145761010080835404028352916020019161083f565b820191906000526020600020905b81548152906001019060200180831161082257829003601f168201915b50505050508152602001600382015481526020016004820154815260200160058201548152602001600682018054806020026020016040519081016040528092919081815260200182805480156108eb57602002820191906000526020600020905b8160009054906101000a900473ffffffffffffffffffffffffffffffffffffffff1673ffffffffffffffffffffffffffffffffffffffff16815260200190600101908083116108a1575b505050505081526020016007820180548060200260200160405190810160405280929190818152602001828054801561094357602002820191906000526020600020905b81548152602001906001019080831161092f575b50505050508152505083838151811061095f5761095e6116ef565b5b6020026020010181905250508080610976906115f9565b9150506106a1565b508091505090565b604051806101000160405280600073ffffffffffffffffffffffffffffffffffffffff168152602001606081526020016060815260200160008152602001600081526020016000815260200160608152602001606081525090565b6000604051905090565b600080fd5b600080fd5b600073ffffffffffffffffffffffffffffffffffffffff82169050919050565b6000610a20826109f5565b9050919050565b610a3081610a15565b8114610a3b57600080fd5b50565b600081359050610a4d81610a27565b92915050565b600080fd5b600080fd5b6000601f19601f8301169050919050565b7f4e487b7100000000000000000000000000000000000000000000000000000000600052604160045260246000fd5b610aa682610a5d565b810181811067ffffffffffffffff82111715610ac557610ac4610a6e565b5b80604052505050565b6000610ad86109e1565b9050610ae48282610a9d565b919050565b600067ffffffffffffffff821115610b0457610b03610a6e565b5b610b0d82610a5d565b9050602081019050919050565b82818337600083830152505050565b6000610b3c610b3784610ae9565b610ace565b905082815260208101848484011115610b5857610b57610a58565b5b610b63848285610b1a565b509392505050565b600082601f830112610b8057610b7f610a53565b5b8135610b90848260208601610b29565b91505092915050565b6000819050919050565b610bac81610b99565b8114610bb757600080fd5b50565b600081359050610bc981610ba3565b92915050565b600080600080600060a08688031215610beb57610bea6109eb565b5b6000610bf988828901610a3e565b955050602086013567ffffffffffffffff811115610c1a57610c196109f0565b5b610c2688828901610b6b565b945050604086013567ffffffffffffffff811115610c4757610c466109f0565b5b610c5388828901610b6b565b9350506060610c6488828901610bba565b9250506080610c7588828901610bba565b9150509295509295909350565b610c8b81610b99565b82525050565b6000602082019050610ca66000830184610c82565b92915050565b600060208284031215610cc257610cc16109eb565b5b6000610cd084828501610bba565b91505092915050565b610ce281610a15565b82525050565b600081519050919050565b600082825260208201905092915050565b60005b83811015610d22578082015181840152602081019050610d07565b60008484015250505050565b6000610d3982610ce8565b610d438185610cf3565b9350610d53818560208601610d04565b610d5c81610a5d565b840191505092915050565b600060c082019050610d7c6000830189610cd9565b8181036020830152610d8e8188610d2e565b90508181036040830152610da28187610d2e565b9050610db16060830186610c82565b610dbe6080830185610c82565b610dcb60a0830184610c82565b979650505050505050565b600081519050919050565b600082825260208201905092915050565b6000819050602082019050919050565b610e0b81610a15565b82525050565b6000610e1d8383610e02565b60208301905092915050565b6000602082019050919050565b6000610e4182610dd6565b610e4b8185610de1565b9350610e5683610df2565b8060005b83811015610e87578151610e6e8882610e11565b9750610e7983610e29565b925050600181019050610e5a565b5085935050505092915050565b600081519050919050565b600082825260208201905092915050565b6000819050602082019050919050565b610ec981610b99565b82525050565b6000610edb8383610ec0565b60208301905092915050565b6000602082019050919050565b6000610eff82610e94565b610f098185610e9f565b9350610f1483610eb0565b8060005b83811015610f45578151610f2c8882610ecf565b9750610f3783610ee7565b925050600181019050610f18565b5085935050505092915050565b60006040820190508181036000830152610f6c8185610e36565b90508181036020830152610f808184610ef4565b90509392505050565b600081519050919050565b600082825260208201905092915050565b6000819050602082019050919050565b600082825260208201905092915050565b6000610fd182610ce8565b610fdb8185610fb5565b9350610feb818560208601610d04565b610ff481610a5d565b840191505092915050565b600082825260208201905092915050565b600061101b82610dd6565b6110258185610fff565b935061103083610df2565b8060005b838110156110615781516110488882610e11565b975061105383610e29565b925050600181019050611034565b5085935050505092915050565b600082825260208201905092915050565b600061108a82610e94565b611094818561106e565b935061109f83610eb0565b8060005b838110156110d05781516110b78882610ecf565b97506110c283610ee7565b9250506001810190506110a3565b5085935050505092915050565b6000610100830160008301516110f66000860182610e02565b506020830151848203602086015261110e8282610fc6565b915050604083015184820360408601526111288282610fc6565b915050606083015161113d6060860182610ec0565b5060808301516111506080860182610ec0565b5060a083015161116360a0860182610ec0565b5060c083015184820360c086015261117b8282611010565b91505060e083015184820360e0860152611195828261107f565b9150508091505092915050565b60006111ae83836110dd565b905092915050565b6000602082019050919050565b60006111ce82610f89565b6111d88185610f94565b9350836020820285016111ea85610fa5565b8060005b85811015611226578484038952815161120785826111a2565b9450611212836111b6565b925060208a019950506001810190506111ee565b50829750879550505050505092915050565b6000602082019050818103600083015261125281846111c3565b905092915050565b7f54686520446561646c696e65206f66207468652063616d706169676e2073686f60008201527f756c6420626520696e2066757475726521210000000000000000000000000000602082015250565b60006112b6603283610cf3565b91506112c18261125a565b604082019050919050565b600060208201905081810360008301526112e5816112a9565b9050919050565b7f4e487b7100000000000000000000000000000000000000000000000000000000600052602260045260246000fd5b6000600282049050600182168061133357607f821691505b602082108103611346576113456112ec565b5b50919050565b60008190508160005260206000209050919050565b60006020601f8301049050919050565b600082821b905092915050565b6000600883026113ae7fffffffffffffffffffffffffffffffffffffffffffffffffffffffffffffffff82611371565b6113b88683611371565b95508019841693508086168417925050509392505050565b6000819050919050565b60006113f56113f06113eb84610b99565b6113d0565b610b99565b9050919050565b6000819050919050565b61140f836113da565b61142361141b826113fc565b84845461137e565b825550505050565b600090565b61143861142b565b611443818484611406565b505050565b5b818110156114675761145c600082611430565b600181019050611449565b5050565b601f8211156114ac5761147d8161134c565b61148684611361565b81016020851015611495578190505b6114a96114a185611361565b830182611448565b50505b505050565b600082821c905092915050565b60006114cf600019846008026114b1565b1980831691505092915050565b60006114e883836114be565b9150826002028217905092915050565b61150182610ce8565b67ffffffffffffffff81111561151a57611519610a6e565b5b611524825461131b565b61152f82828561146b565b600060209050601f8311600181146115625760008415611550578287015190505b61155a85826114dc565b8655506115c2565b601f1984166115708661134c565b60005b8281101561159857848901518255600182019150602085019450602081019050611573565b868310156115b557848901516115b1601f8916826114be565b8355505b6001600288020188555050505b505050505050565b7f4e487b7100000000000000000000000000000000000000000000000000000000600052601160045260246000fd5b600061160482610b99565b91507fffffffffffffffffffffffffffffffffffffffffffffffffffffffffffffffff8203611636576116356115ca565b5b600182019050919050565b600061164c82610b99565b915061165783610b99565b925082820390508181111561166f5761166e6115ca565b5b92915050565b600081905092915050565b50565b6000611690600083611675565b915061169b82611680565b600082019050919050565b60006116b182611683565b9150819050919050565b60006116c682610b99565b91506116d183610b99565b92508282019050808211156116e9576116e86115ca565b5b92915050565b7f4e487b7100000000000000000000000000000000000000000000000000000000600052603260045260246000fdfea264697066735822122009940167f13cba750a88d9691952bd30ad0962430bb14b86651a61f15609ee0164736f6c63430008120033",
  "linkReferences": {},
  "deployedLinkReferences": {}
}